:020000040800F2
:10000000000008249D0A0008550900085B09000843
:1000100061090008670900086D0900080000000078
:10002000000000000000000000000000ED0A0008D1
:100030007309000800000000ED0A000881090008AB
:10004000ED0A0008ED0A0008ED0A0008ED0A0008B4
:10005000ED0A0008ED0A0008ED0A0008ED0A0008A4
:10006000ED0A0008ED0A0008ED0A0008ED0A000894
:10007000ED0A0008ED0A0008ED0A0008ED0A000884
:10008000ED0A0008ED0A0008ED0A0008ED0A000874
:10009000ED0A0008ED0A0008ED0A0008ED0A000864
:1000A000ED0A0008ED0A0008ED0A0008ED0A000854
:1000B000ED0A0008ED0A0008ED0A0008ED0A000844
:1000C000ED0A0008ED0A0008ED0A0008ED0A000834
:1000D000ED0A0008ED0A0008ED0A0008ED0A000824
:1000E000ED0A0008ED0A000800000000ED0A000813
:1000F000ED0A0008ED0A0008ED0A0008ED0A000804
:10010000ED0A0008ED0A0008ED0A0008ED0A0008F3
:10011000ED0A0008ED0A0008ED0A0008ED0A0008E3
:10012000ED0A0008ED0A0008ED0A0008ED0A0008D3
:10013000ED0A0008ED0A0008ED0A0008ED0A0008C3
:1001400000000000000000000000000000000000AF
:10015000ED0A0008ED0A0008ED0A0008ED0A0008A3
:10016000ED0A0008ED0A0008ED0A0008ED0A000893
:10017000ED0A0008ED0A0008ED0A0008ED0A000883
:10018000ED0A0008ED0A0008ED0A0008ED0A000873
:10019000ED0A0008ED0A0008ED0A0008ED0A000863
:1001A000ED0A0008ED0A0008ED0A0008ED0A000853
:1001B000ED0A0008ED0A0008ED0A0008ED0A000843
:1001C000ED0A0008ED0A0008ED0A0008ED0A000833
:1001D000ED0A0008ED0A0008ED0A0008ED0A000823
:1001E000ED0A0008ED0A0008ED0A0008ED0A000813
:1001F000ED0A0008ED0A0008ED0A0008ED0A000803
:10020000ED0A0008ED0A0008ED0A0008ED0A0008F2
:10021000ED0A0008ED0A0008ED0A0008ED0A0008E2
:10022000ED0A0008ED0A0008ED0A000800000000D1
:10023000ED0A0008ED0A000800000000ED0A0008C1
:10024000ED0A0008ED0A0008ED0A0008ED0A0008B2
:10025000ED0A0008ED0A0008ED0A0008ED0A0008A2
:10026000ED0A0008ED0A0008ED0A0008ED0A000892
:10027000ED0A0008ED0A0008ED0A00080000000081
:10028000ED0A0008ED0A0008ED0A00080000000071
:1002900000000000ED0A000810B5054C237833B9C2
:1002A000044B13B10448AFF300800123237010BD49
:1002B00010000024000000004849000808B5034B66
:1002C0001BB103490348AFF3008008BD00000000E4
:1002D000140000244849000880B588B000AF6B4B7B
:1002E0005B6903F40033002B1BD1BFF34F8F00BFBA
:1002F000BFF36F8F00BF654B0022C3F85022BFF3DE
:100300004F8F00BFBFF36F8F00BF604B5B695F4AC9
:1003100043F400335361BFF34F8F00BFBFF36F8FC0
:1003200000E000BF594B5B6903F48033002B38D1E8
:10033000564B0022C3F88420BFF34F8F00BF534BAE
:10034000D3F88030FB60FB685B0BC3F30E03BB602C
:10035000FB68DB08C3F309037B60BB685A0143F603
:10036000E07313407A68920748491343C1F860323A
:100370007B685A1E7A60002BEFD1BB685A1EBA60A8
:10038000002BE5D1BFF34F8F00BF404B5B693F4A65
:1003900043F480335361BFF34F8F00BFBFF36F8FC0
:1003A00000E000BF00F0A4FB00F07AF800F04AF98A
:1003B00000F01CF900F0F8F8354803F0FFFF04F0F6
:1003C0009FF8BFF34F8F00BFBFF36F8F00BF2F4B5E
:1003D0005B692E4A23F4003353612C4B0022C3F88F
:1003E0005022BFF34F8F00BFBFF36F8F00BF00BF1E
:1003F000264B0022C3F88420BFF34F8F00BF234B4E
:100400005B69224A23F480335361BFF34F8F00BFEF
:100410001E4BD3F88030BB61BB695B0BC3F30E038B
:100420007B61BB69DB08C3F309033B617B695A014C
:1004300043F6E07313403A69920714491343C1F835
:1004400074323B695A1E3A61002BEFD17B695A1E08
:100450007A61002BE5D1BFF34F8F00BFBFF36F8FE1
:1004600000BF00BF0B4B00221A600B4B1B681A46E3
:100470000A4B1A604FF010431B68FB61FB6983F362
:10048000088800BF054B1B689847FEE700ED00E0B9
:100490005000002410E000E0040000909C000024C4
:1004A00080B59CB000AF07F124034C220021184610
:1004B00004F01DFA3B1D20220021184604F017FA13
:1004C000022000F039FF00233B60354BDB6A344AE1
:1004D00023F00103D362324BDB6A03F001033B607C
:1004E000304B9B692F4A43F4404393612D4B9B69EA
:1004F00003F440433B603B6800BF2A4B9B6903F415
:100500000053B3F5005FF8D103237B624FF48033CF
:10051000BB6201233B6340237B630223BB64022352
:10052000FB6405233B65A0237B650223BB65042395
:10053000FB6502233B6608237B660023BB66002322
:10054000FB6607F12403184601F0D6FB0346002B97
:1005500001D000F013F93F237B600323BB6000232D
:10056000FB6008233B6140237B614023BB614FF468
:100570008063FB6140233B623B1D0221184602F071
:1005800015F80346002B01D000F0F8F84FF4802254
:100590000021002002F0C0F900BF7037BD4680BDC9
:1005A000000400580048025880B500AF0D4B0E4AB9
:1005B0001A600C4B00221A710A4B00225A71094B27
:1005C00000225A61074B00229A61064B01221A62EF
:1005D000044800F00FFC0346002B01D000F0CEF8D9
:1005E00000BF80BD2C000024004C025880B500AF35
:1005F000124B134A1A60114B01225A600F4B012211
:100600009A600E4B1022DA600C4B17221A610B4BCA
:100610004FF480725A61094B00229A61074B002205
:10062000DA61064B00221A62044800F0BFFE03465E
:10063000002B01D000F0A2F800BF80BD50000024C4
:100640000050005280B58EB000AF07F124030022A5
:100650001A605A609A60DA601A61464BD3F8E0304B
:10066000444A43F48073C2F8E030424BD3F8E030A0
:1006700003F480733B623B6A3E4BD3F8E0303D4A63
:1006800043F01003C2F8E0303A4BD3F8E03003F007
:100690001003FB61FB69374BD3F8E030354A43F078
:1006A0000103C2F8E030334BD3F8E03003F001032C
:1006B000BB61BB692F4BD3F8E0302E4A43F0800377
:1006C000C2F8E0302B4BD3F8E03003F080037B61BD
:1006D0007B69284BD3F8E030264A43F00203C2F886
:1006E000E030244BD3F8E03003F002033B613B6978
:1006F000204BD3F8E0301F4A43F04003C2F8E0300B
:100700001C4BD3F8E03003F04003FB60FB68194B4F
:10071000D3F8E030174A43F00803C2F8E030154B35
:10072000D3F8E03003F00803BB60BB68114BD3F88B
:10073000E030104A43F02003C2F8E0300D4BD3F80C
:10074000E03003F020037B607B684FF480737B62B2
:100750000223BB620023FB6200233B6300237B6315
:1007600007F124031946044800F036FC00BF38376F
:10077000BD4680BD004402580000025880B400AF5E
:1007800072B600BFFEE7000080B582B000AF0C4B30
:10079000D3F8F4300A4A43F00203C2F8F430084BAD
:1007A000D3F8F43003F002037B607B6800220F2152
:1007B0006FF0010000F0F7FA00BF0837BD4680BDBA
:1007C0000044025880B485B000AF78607B681B6835
:1007D0000B4A93420ED10B4BD3F8E030094A43F455
:1007E0000023C2F8E030074BD3F8E03003F40023D5
:1007F000FB60FB6800BF1437BD465DF8047B7047A3
:10080000004C02580044025880B5BCB000AF78607C
:1008100007F1DC0300221A605A609A60DA601A61FC
:1008200007F11803C0220021184604F060F87B6825
:100830001B68444A934240F081804FF000724FF0B1
:100840000003C7E9062300237B6607F11803184657
:1008500002F046FA0346002B01D0FFF78FFF3A4B18
:10086000D3F8D430384A43F48043C2F8D430364BFE
:10087000D3F8D43003F480437B617B69324BD3F8E7
:10088000E030314A43F02003C2F8E0302E4BD3F879
:10089000E03003F020033B613B692B4BD3F8E030A1
:1008A000294A43F00203C2F8E030274BD3F8E03086
:1008B00003F00203FB60FB684FF49863C7F8DC3079
:1008C0000223C7F8E0300023C7F8E4300323C7F859
:1008D000E8300923C7F8EC3007F1DC0319461B4860
:1008E00000F07AFB4FF44073C7F8DC300223C7F8FE
:1008F000E0300023C7F8E4300323C7F8E8300A23C8
:10090000C7F8EC3007F1DC031946104800F064FB2F
:100910004FF48063C7F8DC300223C7F8E0300023CF
:10092000C7F8E4300323C7F8E8300923C7F8EC30F0
:1009300007F1DC031946064800F04EFB00BFF03714
:10094000BD4680BD005000520044025800140258B9
:100950000004025880B400AFFEE780B400AFFEE7A9
:1009600080B400AFFEE780B400AFFEE780B400AF14
:10097000FEE780B400AF00BFBD465DF8047B704762
:1009800080B500AF00F026F900BF80BD80B400AF95
:10099000374BD3F88830364A43F47003C2F88830B6
:1009A000344B1B6803F00F03062B07D8314B1B6831
:1009B00023F00F032F4A43F0070313602E4B1B68ED
:1009C0002D4A43F0010313602B4B00221A612A4B7E
:1009D0001A682949294B13400B60264B1B6803F00A
:1009E0000803002B07D0234B1B6823F00F03214A79
:1009F00043F007031360204B00229A611E4B002234
:100A0000DA611D4B00221A621B4B1D4A9A621A4B77
:100A10001C4ADA62184B1C4A1A63174B00225A63AD
:100A2000154B194A9A63144B0022DA63124B164A8B
:100A30001A64114B00225A640F4B1B680E4A23F4B0
:100A4000802313600C4B00221A66104B1A68104B5F
:100A50001340B3F1005F02D20E4B01221A600E4B1D
:100A600043F2D2021A6000BFBD465DF8047B7047B6
:100A700000ED00E000200052004402587FEDF6EA4D
:100A8000000202020000FF01800201010010005C70
:100A90000000FFFF0881005100400052DFF834D011
:100AA000FFF774FF0C480D490D4A002302E0D458AB
:100AB000C4500433C4188C42F9D30A4A0A4C0023A8
:100AC00001E013600432A242FBD303F019FFFFF7E9
:100AD00003FC7047000008240000002410000024DC
:100AE0007849000810000024CC000024FEE7000034
:100AF00080B582B000AF032000F04AF901F076FF24
:100B00000246154B9B691B0A03F00F031349CB5C8C
:100B100003F01F0322FA03F37B600F4B9B6903F082
:100B20000F030E4AD35C03F01F037A6822FA03F323
:100B30000B4A13600B4A7B6813600F2000F014F817
:100B40000346002B01D0012302E0FFF71DFE002326
:100B500018460837BD4680BD004402586049000869
:100B6000040000240000002480B582B000AF78604B
:100B7000154B1B78002B01D1012321E0134B1A6880
:100B8000114B1B7819464FF47A73B3FBF1F3B2FBA8
:100B9000F3F3184600F021F90346002B01D001239E
:100BA0000EE07B680F2B0AD8002279684FF0FF30E7
:100BB00000F0F9F8064A7B681360002300E0012387
:100BC00018460837BD4680BD0C00002400000024F4
:100BD0000800002480B400AF064B1B781A46064B71
:100BE0001B681344044A136000BFBD465DF8047BD4
:100BF000704700BF0C000024A000002480B400AFA8
:100C0000034B1B681846BD465DF8047B704700BF68
:100C1000A000002480B400AF034B1B681B0C1846D7
:100C2000BD465DF8047B70470010005C80B485B061
:100C300000AF78607B6803F00703FB600B4BDB6859
:100C4000BB60BA684FF6FF031340BB60FB681A0233
:100C5000BB681A43064B1343BB60044ABB68D360AE
:100C600000BF1437BD465DF8047B704700ED00E01F
:100C70000000FA0580B400AF044BDB681B0A03F0E8
:100C800007031846BD465DF8047B704700ED00E0A1
:100C900080B483B000AF03463960FB80B7F90630FB
:100CA000002B0ADB3B68DAB20C49B7F906301201B7
:100CB000D2B20B4483F800230AE03B68DAB2084959
:100CC000FB8803F00F03043B1201D2B20B441A76E7
:100CD00000BF0C37BD465DF8047B704700E100E0C3
:100CE00000ED00E080B489B000AFF860B9607A60D0
:100CF000FB6803F00703FB61FB69C3F10703042BE7
:100D000028BF0423BB61FB690433062B02D9FB69AE
:100D1000033B00E000237B614FF0FF32BB6902FA26
:100D200003F3DA43BB681A407B699A404FF0FF3106
:100D30007B6901FA03F3D9437B680B4013431846E0
:100D40002437BD465DF8047B7047000080B582B053
:100D500000AF78607B68013BB3F1807F01D3012352
:100D60000FE00A4A7B68013B53600F214FF0FF30D0
:100D7000FFF78EFF054B00229A60044B07221A6092
:100D8000002318460837BD4680BD00BF10E000E0D4
:100D900080B582B000AF78607868FFF747FF00BF8A
:100DA0000837BD4680BD80B586B000AF0346B96048
:100DB0007A60FB81FFF75EFF78617A68B9687869CD
:100DC000FFF790FF0246B7F90E3011461846FFF7BD
:100DD0005FFF00BF1837BD4680BD80B582B000AF51
:100DE00078607868FFF7B2FF034618460837BD46BB
:100DF00080BD000080B582B000AF78607B68002BBA
:100E000001D1012354E07B685B7FDBB2002B05D16D
:100E10007B6800221A777868FFF7D4FC7B6802228F
:100E20005A777B681B79002B0CD17B681B68224AA0
:100E30005A617B681B689A687B681B6822F01802FD
:100E40009A600CE07B6899687B68DB681A46786872
:100E500000F034F80346002B01D0012328E07B6822
:100E60005B79002B05D17B681B684FF0FF321A615C
:100E700004E07B681B687A6812691A617B681B68EA
:100E80009B6823F060017B685A697B681B680A4392
:100E90009A607B681B689B6823F080017B689A6975
:100EA0007B681B680A439A607B6801225A7700239B
:100EB00018460837BD4680BDB71DC10480B487B051
:100EC00000AFF860B9607A600023FB751F233B61B7
:100ED000BB6803F00103002B02D10123FB7563E023
:100EE00000BF3B695A1E3A61002B09D03B6903F0F1
:100EF0001F03BA6822FA03F303F00103002BF0D0BA
:100F00007B68182B46D801A252F823F09B0F0008EB
:100F1000950F0008950F0008950F0008950F000821
:100F2000950F0008950F0008950F0008890F00081D
:100F3000950F0008950F0008950F0008950F000801
:100F4000950F0008950F0008950F00087D0F000809
:100F5000950F0008950F0008950F0008950F0008E1
:100F6000950F0008950F0008950F0008710F0008F5
:100F70003B69062B13D90123FB7510E03B69072B56
:100F80000FD90123FB750CE03B690F2B0BD9012313
:100F9000FB7508E00123FB7506E000BF04E000BF1D
:100FA00002E000BF00E000BFFB7D002B0DD1FB681D
:100FB0001B68BA685A61FB681B689B6823F01801BC
:100FC000FB681B687A680A439A60FB7D18461C37E9
:100FD000BD465DF8047B704780B489B000AF78608F
:100FE00039600023FB61894B7B6194E13B681A689F
:100FF0000121FB6901FA03F313403B613B69002BBC
:1010000000F086813B685B6803F00303012B05D089
:101010003B685B6803F00303022B30D17B689B685D
:10102000BB61FB695B00032202FA03F3DB43BA698D
:101030001340BB613B68DA68FB695B0002FA03F3AB
:10104000BA691343BB617B68BA699A607B685B6865
:10105000BB610122FB6902FA03F3DB43BA69134067
:10106000BB613B685B681B0903F00102FB6902FA84
:1010700003F3BA691343BB617B68BA695A603B6882
:101080005B6803F00303032B17D07B68DB68BB614D
:10109000FB695B00032202FA03F3DB43BA691340E6
:1010A000BB613B689A68FB695B0002FA03F3BA69AB
:1010B0001343BB617B68BA69DA603B685B6803F025
:1010C0000303022B23D1FB69DA087B68083253F84B
:1010D0002230BB61FB6903F007039B000F2202FA79
:1010E00003F3DB43BA691340BB613B681A69FB69D0
:1010F00003F007039B0002FA03F3BA691343BB61D1
:10110000FB69DA087B680832B96943F822107B680A
:101110001B68BB61FB695B00032202FA03F3DB433C
:10112000BA691340BB613B685B6803F00302FB696B
:101130005B0002FA03F3BA691343BB617B68BA69C7
:101140001A603B685B6803F44033002B00F0E080DA
:101150002F4BD3F8F4302E4A43F00203C2F8F43098
:101160002B4BD3F8F43003F00203FB60FB68294AF1
:10117000FB699B08023352F82330BB61FB6903F023
:1011800003039B000F2202FA03F3DB43BA69134007
:10119000BB617B68204A934252D07B681F4A9342CE
:1011A00031D07B681E4A93422BD07B681D4A934204
:1011B00025D07B681C4A93421FD07B681B4A934210
:1011C00019D07B681A4A934213D07B68194A93421C
:1011D0000DD07B68184A934207D07B68174A934228
:1011E00001D109232DE00A232BE0082329E007235E
:1011F00027E0062325E0052323E0042321E0032341
:101200001FE002231DE001231BE000BF8000005807
:10121000004402580004005800000258000402581C
:1012200000080258000C025800100258001402581E
:1012300000180258001C02580020025800240258CE
:101240000023FA6902F0030292009340BA69134343
:10125000BB613849FB699B080233BA6941F8232016
:101260004FF0B0431B68BB613B69DB43BA69134075
:10127000BB613B685B6803F48013002B03D0BA6941
:101280003B691343BB614FF0B042BB6913604FF041
:10129000B0435B68BB613B69DB43BA691340BB6128
:1012A0003B685B6803F40013002B03D0BA693B6909
:1012B0001343BB614FF0B042BB6953607B695B680D
:1012C000BB613B69DB43BA691340BB613B685B6848
:1012D00003F40033002B03D0BA693B691343BB61AD
:1012E0007B69BA695A607B691B68BB613B69DB43F8
:1012F000BA691340BB613B685B6803F48033002B21
:1013000003D0BA693B691343BB617B69BA691A6050
:10131000FB690133FB613B681A68FB6922FA03F33E
:10132000002B7FF463AE00BF00BF2437BD465DF8DD
:10133000047B70470004005880B584B000AF78602B
:10134000194BDB6803F00403042B0AD0164BDB684F
:1013500003F007037A689A4201D001231FE00023BB
:101360001DE0114BDB6823F007020F497B68134334
:10137000CB60FFF743FCF86009E0FFF73FFC024653
:10138000FB68D31AB3F57A7F01D9012307E0064B36
:101390005B6803F40053B3F5005FEED100231846F9
:1013A0001037BD4680BD00BF0048025880B586B0EA
:1013B00002AF7860FFF722FCF8607B68002B01D158
:1013C00001235FE07B6893F84130DBB2002B07D14B
:1013D0007868FFF719FA41F28831786800F0C0FAAE
:1013E0007B681B681B6823F4F8517B689B68013B92
:1013F0001A027B681B680A431A607B689B6C009327
:10140000FB6800222021786800F0B8FA0346FB72DE
:10141000FB7A002B35D17B681B681A681B4B134085
:101420007A68526811067A68D26811437A68D2697C
:1014300011437A68126A11437A6812680B43136089
:101440007B681B685A68124B13407A681269110452
:101450007A68526911437A68926911437A6812680E
:101460000B4353607B681B681A687B681B6842F0FB
:1014700001021A607B6800225A647B68012283F8AB
:101480004120FB7A18461037BD4680BD2FFFFF0074
:10149000FEF8E0FF80B588B002AFF860B9607A600E
:1014A000FFF7ACFB3861FB6893F84030DBB2012BEF
:1014B00001D1022348E0FB68012283F84020FB6849
:1014C00093F84130DBB2012B37D1FB6800225A641C
:1014D000FB68022283F841207B6800933B6900226D
:1014E0002021F86800F04AFA0346FB75FB7D002BCB
:1014F00025D10022B968F86800F077FABB685B6A0A
:10150000002B15D17B6800933B6901220221F8680A
:1015100000F034FA0346FB75FB7D002B0FD1FB680E
:101520001B680222DA60FB68012283F8412006E092
:10153000FB68012283F8412001E00223FB75FB6870
:10154000002283F84020FB7D18461837BD4680BD39
:1015500080B58AB002AFF860B9607A600023FB778B
:10156000FFF74CFBB861FB681B6820337B61FB68AD
:1015700093F84030DBB2012B01D1022376E0FB6807
:10158000012283F84020FB6893F84130DBB2012B45
:1015900065D1FB6800225A64BB68002B56D0FB68FB
:1015A000122283F84120FB681B681B695A1CFB68E8
:1015B000DA62FB681B681B695A1CFB689A62FB684D
:1015C000BA685A62FB681B685A69FB681B6822F09C
:1015D00040625A611BE07B680093BB6901220421D1
:1015E000F86800F0CBF90346FB77FB7F002B13D1A3
:1015F000FB685B6A1A787B691A70FB685B6A5A1C25
:10160000FB685A62FB68DB6A5A1EFB68DA62FB6899
:10161000DB6A002BDFD100E000BFFB7F002B10D185
:101620007B680093BB6901220221F86800F0A6F9EB
:101630000346FB77FB7F002B03D1FB681B6802226C
:10164000DA60FB68012283F841200AE0FB685B6CEA
:1016500043F00802FB685A640123FB7701E0022390
:10166000FB77FB68002283F84020FB7F1846203779
:10167000BD4680BD80B58AB002AFF860B9607A60BF
:101680000023FB77FFF7BAFAB861FB681B689B6918
:101690007B61FB681B6820333B61FB6893F840303B
:1016A000DBB2012B01D102237DE0FB68012283F82C
:1016B0004020FB6893F84130DBB2012B6CD1FB6812
:1016C00000225A64BB68002B5DD0FB68222283F89D
:1016D0004120FB681B681B695A1CFB689A63FB6806
:1016E0001B681B695A1CFB685A63FB68BA681A635B
:1016F000FB681B685B6923F04062FB681B6842F073
:1017000080625A61FB681B687A699A611CE07B6899
:101710000093BB6901220621F86800F02FF9034607
:10172000FB77FB7F002B14D1FB681B6B3A691278A7
:10173000D2B21A70FB681B6B5A1CFB681A63FB68F9
:101740009B6B5A1EFB689A63FB689B6B002BDED178
:1017500000E000BFFB7F002B10D17B680093BB69CA
:1017600001220221F86800F009F90346FB77FB7FAC
:10177000002B03D1FB681B680222DA60FB680122A0
:1017800083F841200AE0FB685B6C43F00802FB68C9
:101790005A640123FB7701E00223FB77FB680022F8
:1017A00083F84020FB7F18462037BD4680BD80B5BA
:1017B00088B002AFF860B9607A603B60FFF71EFA4C
:1017C0003861FB6893F84030DBB2012B01D1022372
:1017D00060E0FB68012283F84020FB6893F8413009
:1017E000DBB2012B4FD1FB6800225A64FB68422216
:1017F00083F841203B6800933B6900222021F86870
:1018000000F0BCF80346FB75FB7D002B3DD1FB6867
:101810001B687A6812689A62FB681B687A6852686B
:101820005A62FB681B687A689268DA62FB681B6818
:101830001B6823F440027B681B691A43FB681B6822
:1018400042F480021A607B68DA68BB689A624FF0E3
:101850000062B968F86800F0C8F83B6800933B691B
:1018600001220821F86800F089F80346FB75FB7D2A
:10187000002B0AD1FB681B680822DA60FB68012292
:1018800083F8412001E00223FB75FB68002283F806
:101890004020FB7D18461837BD4680BD80B588B016
:1018A00002AFF860B9607A60FFF7A8F93861FB68A9
:1018B00093F84030DBB2012B01D102234CE0FB68EE
:1018C000012283F84020FB6893F84130DBB2012B02
:1018D0003BD1FB6800225A64FB68822283F84120D6
:1018E000FB689B6C00933B6900222021F86800F0A4
:1018F00045F80346FB75FB7D002B28D1FB681B6870
:101900001B6823F008017B685A68FB681B680A4360
:101910001A607B685B68082B10D1FB681B687A68CB
:1019200012681A63FB681B681022DA60FB681B6888
:101930001A68FB681B6842F480121A604FF040621C
:10194000B968F86800F051F801E00223FB75FB6804
:10195000002283F84020FB7D18461837BD4680BD25
:1019600080B483B000AF786039607B683A689A646D
:1019700000BF0C37BD465DF8047B704780B584B06E
:1019800000AFF860B9603B601346FB711AE0BB69B9
:10199000B3F1FF3F16D0FFF731F902463B68D31A87
:1019A000BA699A4202D3BB69002B0BD1FB680422AF
:1019B00083F84120FB685B6C43F00102FB685A64CA
:1019C00001230EE0FB681B689A68BB681340002B7C
:1019D00014BF01230023DBB21A46FB799A42D6D109
:1019E000002318461037BD4680BD80B485B000AFD7
:1019F000F860B9607A60BB685B6A002B09D07B68CD
:101A0000B3F1406F05D0BB689A6AFB681B68013A66
:101A10001A61BB689B69002B00F0B980BB681B6A28
:101A2000002B5FD0FB681B68BA689268DA61BB68FC
:101A3000DB69002B31D0BB68DA6ABB681B6B1A43C9
:101A4000BB685B6B1A43BB685B6A1A43BB685B6924
:101A50009B041A43BB681B691A43BB681B6A1A4381
:101A6000BB68DB681A43BB68DB691A43BB689B69C8
:101A70001A43BB681B6842EA0301FB681B687A686B
:101A80000A435A617B68B3F1406F00F02E81FB6816
:101A90001B68BA6852689A6127E1BB68DA6ABB685A
:101AA0001B6B1A43BB685B6B1A43BB685B6A1A43C8
:101AB000BB685B699B041A43BB681B691A43BB681C
:101AC0001B6A1A43BB68DB691A43BB689B691A43EC
:101AD000BB681B6842EA0301FB681B687A680A431B
:101AE0005A6102E1BB68DB69002B2ED0BB68DA6A61
:101AF000BB681B6B1A43BB685B6B1A43BB685B6AB2
:101B00001A43BB685B699B041A43BB681B6A1A4390
:101B1000BB68DB681A43BB68DB691A43BB689B6917
:101B20001A43BB681B6842EA0301FB681B687A68BA
:101B30000A435A617B68B3F1406F00F0D680FB68BE
:101B40001B68BA6852689A61CFE0BB68DA6ABB6802
:101B50001B6B1A43BB685B6B1A43BB685B6A1A4317
:101B6000BB685B699B041A43BB681B6A1A43BB686A
:101B7000DB691A43BB689B691A43BB681B6842EA6E
:101B80000301FB681B687A680A435A61ADE0BB68D1
:101B90001B6A002B58D0FB681B68BA689268DA6130
:101BA000BB68DB69002B2DD0BB68DA6ABB681B6B96
:101BB0001A43BB685B6B1A43BB685B6A1A43BB681A
:101BC0005B699B041A43BB681B691A43BB681B6AA9
:101BD0001A43BB68DB681A43BB68DB691A43BB68FE
:101BE0009B6942EA0301FB681B687A680A435A61F1
:101BF0007B68B3F1406F78D0FB681B68BA685268A5
:101C00009A6172E0BB68DA6ABB681B6B1A43BB68F7
:101C10005B6B1A43BB685B6A1A43BB685B699B04D6
:101C20001A43BB681B691A43BB681B6A1A43BB682B
:101C3000DB691A43BB689B6942EA0301FB681B68C6
:101C40007A680A435A6150E0BB68DB69002B2AD0EE
:101C5000BB68DA6ABB681B6B1A43BB685B6B1A43D1
:101C6000BB685B6A1A43BB685B699B041A43BB6829
:101C70001B6A1A43BB68DB681A43BB68DB691A43FB
:101C8000BB689B6942EA0301FB681B687A680A43E8
:101C90005A617B68B3F1406F27D0FB681B68BA6854
:101CA00052689A6121E0BB685B6A002B1DD0BB685B
:101CB000DA6ABB681B6B1A43BB685B6B1A43BB6871
:101CC0005B6A1A43BB685B699B041A43BB681B6A67
:101CD0001A43BB68DB691A43BB689B6942EA03018C
:101CE000FB681B687A680A435A6100BF1437BD4617
:101CF0005DF8047B7047000080B58CB000AF786061
:101D00007B68002B02D1012300F048BC7B681B6874
:101D100003F00103002B00F08880994B1B6903F04E
:101D20003803FB62964B9B6ABB62FB6A102B07D0A1
:101D3000FB6A182B11D1BB6A03F00303022B0CD1F1
:101D40008F4B1B6803F40033002B6DD07B685B68FE
:101D5000002B69D1012300F021BC7B685B68B3F5DF
:101D6000803F06D1864B1B68854A43F4803313605D
:101D70002EE07B685B68002B0CD1814B1B68804A8E
:101D800023F4803313607E4B1B687D4A23F4802349
:101D900013601DE07B685B68B3F5A02F0CD1784B16
:101DA0001B68774A43F480231360754B1B68744AA1
:101DB00043F4803313600BE0714B1B68704A23F4CB
:101DC000803313606E4B1B686D4A23F480231360CD
:101DD0007B685B68002B13D0FEF710FF786208E089
:101DE000FEF70CFF02467B6AD31A642B01D903234A
:101DF000D4E3634B1B6803F40033002BF0D014E0F2
:101E0000FEF7FCFE786208E0FEF7F8FE02467B6A09
:101E1000D31A642B01D90323C0E3594B1B6803F485
:101E20000033002BF0D100E000BF7B681B6803F09B
:101E30000203002B00F0CA80514B1B6903F03803EA
:101E40003B624F4B9B6AFB613B6A002B07D03B6AAE
:101E5000182B56D1FB6903F00303002B51D1484BDB
:101E60001B6803F00403002B05D07B68DB68002BA4
:101E700001D1012392E3424B1B6823F019027B68D6
:101E8000DB683F4913430B60FEF7B8FE786208E059
:101E9000FEF7B4FE02467B6AD31A022B01D9032354
:101EA0007CE3374B1B6803F00403002BF0D0FEF7F4
:101EB000B1FE034641F20302934217D87B681B69C7
:101EC000402B08D12E4B5B6823F47C332C4A43F41F
:101ED000003353607AE02A4B5B6823F47C327B68E2
:101EE0001B691B03264913434B606FE0244B5B685F
:101EF00023F0FE427B681B691B06214913434B609C
:101F000064E07B68DB68002B47D01D4B1B6823F027
:101F100019027B68DB681A4913430B60FEF76EFEFB
:101F2000786208E0FEF76AFE02467B6AD31A022B4B
:101F300001D9032332E3124B1B6803F00403002B87
:101F4000F0D0FEF767FE034641F20302934219D830
:101F50007B681B69402B08D1094B5B6823F47C33F9
:101F6000074A43F40033536030E0054B5B6823F4C9
:101F70007C327B681B691B03014913434B6025E0DE
:101F8000004402589A4B5B6823F0FE427B681B6951
:101F90001B06974913434B6018E0954B1B68944A06
:101FA00023F001031360FEF729FE786208E0FEF7D4
:101FB00025FE02467B6AD31A022B01D90323EDE2E8
:101FC0008B4B1B6803F00403002BF0D17B681B686C
:101FD00003F01003002B00F0A980854B1B6903F070
:101FE0003803BB61824B9B6A7B61BB69082B07D0BE
:101FF000BB69182B3AD17B6903F00303012B35D160
:102000007B4B1B6803F48073002B05D07B68DB6976
:10201000802B01D00123C1E2FEF7FCFD034641F213
:102020000302934217D87B681B6A202B08D1704BA0
:102030005B6823F0F8436E4A43F08043536075E0D9
:102040006B4B5B6823F0F8427B681B6A9B06684910
:1020500013434B606AE0664BDB6823F07C527B687D
:102060001B6A1B0662491343CB605FE07B68DB6938
:10207000002B42D05E4B1B685D4A43F08003136027
:10208000FEF7BCFD786208E0FEF7B8FD02467B6A09
:10209000D31A022B01D9032380E2554B1B6803F4AA
:1020A0008073002BF0D0FEF7B5FD034641F203022A
:1020B000934217D87B681B6A202B08D14C4B5B6876
:1020C00023F0F8434A4A43F0804353602EE0484BE4
:1020D0005B6823F0F8427B681B6A9B064449134304
:1020E0004B6023E0424BDB6823F07C527B681B6A29
:1020F0001B063F491343CB6018E03D4B1B683C4A2D
:1021000023F080031360FEF779FD786208E0FEF7A4
:1021100075FD02467B6AD31A022B01D903233DE2E7
:10212000334B1B6803F48073002BF0D17B681B6872
:1021300003F00803002B36D07B685B69002B19D0B5
:102140002B4B5B6F2A4A43F001035367FEF756FDA2
:10215000786208E0FEF752FD02467B6AD31A022B32
:1021600001D903231AE2224B5B6F03F00203002B19
:10217000F0D018E01E4B5B6F1D4A23F0010353673C
:10218000FEF73CFD786208E0FEF738FD02467B6A08
:10219000D31A022B01D9032300E2154B5B6F03F026
:1021A0000203002BF0D17B681B6803F02003002B97
:1021B00039D07B689B69002B1CD00D4B1B680C4AE7
:1021C00043F480531360FEF719FD786208E0FEF7D0
:1021D00015FD02467B6AD31A022B01D90323DDE1E8
:1021E000034B1B6803F40053002BF0D01BE000BF2F
:1021F000004402589B4B1B689A4A23F48053136097
:10220000FEF7FCFC786208E0FEF7F8FC02467B6A09
:10221000D31A022B01D90323C0E1924B1B6803F4AC
:102220000053002BF0D17B681B6803F00403002BE4
:1022300000F081808C4B1B688B4A43F480731360E1
:10224000FEF7DCFC786208E0FEF7D8FC02467B6A09
:10225000D31A642B01D90323A0E1834B1B6803F439
:102260008073002BF0D07B689B68012B06D17D4BDF
:102270001B6F7C4A43F0010313672DE07B689B686A
:10228000002B0CD1774B1B6F764A23F001031367A9
:10229000744B1B6F734A23F0040313671CE07B68C5
:1022A0009B68052B0CD16F4B1B6F6E4A43F00403E8
:1022B00013676C4B1B6F6B4A43F0010313670BE012
:1022C000684B1B6F674A23F001031367654B1B6F55
:1022D000644A23F0040313677B689B68002B15D0C6
:1022E000FEF78CFC78620AE0FEF788FC02467B6A07
:1022F000D31A41F28832934201D903234EE1594B5C
:102300001B6F03F00203002BEED014E0FEF776FC07
:1023100078620AE0FEF772FC02467B6AD31A41F249
:102320008832934201D9032338E14E4B1B6F03F0EF
:102330000203002BEED17B685B6A002B00F02D813D
:10234000484B1B6903F03803182B00F0BD807B68F5
:102350005B6A022B40F09E80424B1B68414A23F08F
:1023600080731360FEF74AFC786208E0FEF746FCD3
:1023700002467B6AD31A022B01D903230EE1394BA3
:102380001B6803F00073002BF0D1364B9A6A374B71
:1023900013407A68916A7A68D26A12010A43314915
:1023A00013438B627B681B6B013BC3F308027B68A2
:1023B0005B6B013B5B029BB21A437B689B6B013BEF
:1023C0001B0403F4FE031A437B68DB6B013B1B0613
:1023D00003F0FE43234913430B63224BDB6A214A7C
:1023E00023F00103D3621F4B5A6B214B13407A68D1
:1023F000926CD2001B4913434B631A4BDB6A23F0E8
:102400000C027B681B6C17491343CB62154BDB6ACC
:1024100023F002027B685B6C12491343CB62114BC1
:10242000DB6A104A43F48033D3620E4BDB6A0D4AF9
:1024300043F40033D3620B4BDB6A0A4A43F4802334
:10244000D362084BDB6A074A43F00103D362054BB2
:102450001B68044A43F080731360FEF7CFFB786279
:1024600011E000BF00440258004802580CFCFFFF76
:102470000700FFFFFEF7C2FB02467B6AD31A022B5E
:1024800001D903238AE0474B1B6803F00073002B3C
:10249000F0D082E0434B1B68424A23F08073136004
:1024A000FEF7ACFB786208E0FEF7A8FB02467B6A09
:1024B000D31A022B01D9032370E03A4B1B6803F0B7
:1024C0000073002BF0D168E0364B9B6A3B61354BC3
:1024D0001B6BFB607B685B6A012B31D03B6903F0AF
:1024E00003027B689B6A9A422AD13B691B0903F06D
:1024F0003F027B68DB6A9A4222D1FB68C3F3080281
:102500007B681B6B013B9A421AD1FB685B0A03F0A4
:102510007F027B685B6B013B9A4211D1FB681B0C0D
:1025200003F07F027B689B6B013B9A4208D1FB68FA
:102530001B0E03F07F027B68DB6B013B9A4201D0EC
:1025400001232BE0174B5B6BDB08C3F30C033B61F0
:102550007B689B6C3A699A421FD0124BDB6A114A26
:1025600023F00103D362FEF749FB786200BFFEF758
:1025700045FB02467B6A9342F9D00A4B5A6B0A4BE1
:1025800013407A68926CD200064913434B63054BA3
:10259000DB6A044A43F00103D36200231846303754
:1025A000BD4680BD004402580700FFFF80B586B0DD
:1025B00000AF786039607B68002B01D101239CE17A
:1025C0008A4B1B6803F00F033A689A4210D9874B75
:1025D0001B6823F00F0285493B6813430B60834B54
:1025E0001B6803F00F033A689A4201D0012384E18B
:1025F0007B681B6803F00403002B10D07B681A690A
:102600007B4B9B6903F070039A4208D9784B9B6916
:1026100023F070027B681B69754913438B617B68EB
:102620001B6803F00803002B10D07B685A69704BBD
:10263000DB6903F070039A4208D96D4BDB6923F024
:1026400070027B685B696A491343CB617B681B68D6
:1026500003F01003002B10D07B689A69644BDB6990
:1026600003F4E0639A4208D9614BDB6923F4E0622A
:102670007B689B695E491343CB617B681B6803F0F1
:102680002003002B10D07B68DA69594B1B6A03F0DA
:1026900070039A4208D9564B1B6A23F070027B687C
:1026A000DB69534913430B627B681B6803F0020329
:1026B000002B10D07B68DA684D4B9B6903F00F0349
:1026C0009A4208D94A4B9B6923F00F027B68DB686A
:1026D000474913438B617B681B6803F00103002BA0
:1026E00055D0434B9B6923F470627B689B684049DB
:1026F00013438B617B685B68022B07D13C4B1B68E3
:1027000003F40033002B21D10123F6E07B685B68E2
:10271000032B07D1364B1B6803F00073002B15D138
:102720000123EAE07B685B68012B07D1304B1B6813
:1027300003F48073002B09D10123DEE02C4B1B68CE
:1027400003F00403002B01D10123D6E0284B1B69C1
:1027500023F007027B685B68254913430B61FEF792
:102760004DFA78610AE0FEF749FA02467B69D31A0E
:1027700041F28832934201D90323BEE01C4B1B690E
:1027800003F038027B685B68DB009A42EBD17B6820
:102790001B6803F00203002B10D07B68DA68144B2F
:1027A0009B6903F00F039A4208D2114B9B6923F0F7
:1027B0000F027B68DB680E4913438B610B4B1B6870
:1027C00003F00F033A689A4214D2084B1B6823F0B7
:1027D0000F0206493B6813430B60044B1B6803F070
:1027E0000F033A689A4205D0012386E00020005288
:1027F000004402587B681B6803F00403002B10D0D0
:102800007B681A693F4B9B6903F070039A4208D2B8
:102810003C4B9B6923F070027B681B693949134369
:102820008B617B681B6803F00803002B10D07B686A
:102830005A69344BDB6903F070039A4208D2314B7A
:10284000DB6923F070027B685B692E491343CB611F
:102850007B681B6803F01003002B10D07B689A691B
:10286000284BDB6903F4E0639A4208D2254BDB690D
:1028700023F4E0627B689B6922491343CB617B6848
:102880001B6803F02003002B10D07B68DA691D4B16
:102890001B6A03F070039A4208D21A4B1B6A23F09A
:1028A00070027B68DB69174913430B6200F09EF8E6
:1028B0000246144B9B691B0A03F00F031249CB5CC1
:1028C00003F01F0322FA03F33B610E4B9B6903F0F5
:1028D0000F030D4AD35C03F01F033A6922FA03F396
:1028E0000A4A13600A4A3B6913600A4B1B68184680
:1028F000FEF73AF90346FB73FB7B18461837BD46D3
:1029000080BD00BF00440258604900080400002454
:10291000000000240800002480B58CB000AFF860EF
:10292000B9607A60FB68002B2AD12D4BD3F8E030D8
:102930002B4A43F00103C2F8E030294BD3F8E030D2
:1029400003F00103BB61BB694FF48073FB61022399
:102950003B620323BB6200237B620023FB6207F11F
:102960001C0319461F48FEF737FB1D4B1B6923F05C
:10297000FE72B9687B680B43194913430B612AE067
:10298000174BD3F8E030164A43F00403C2F8E030A6
:10299000134BD3F8E03003F004037B617B694FF401
:1029A0000073FB6102233B620323BB6200237B6253
:1029B0000023FB6207F11C0319460B48FEF70CFBD2
:1029C000074B1B6923F07E427B68D901BB680B4330
:1029D000034913430B6100BF3037BD4680BD00BFC4
:1029E00000440258000002580008025880B489B020
:1029F00000AFB34B1B6903F03803182B00F255816D
:102A000001A252F823F000BF6D2A0008AB2C000889
:102A1000AB2C0008AB2C0008AB2C0008AB2C00083A
:102A2000AB2C0008AB2C0008932A0008AB2C000844
:102A3000AB2C0008AB2C0008AB2C0008AB2C00081A
:102A4000AB2C0008AB2C0008992A0008AB2C00081E
:102A5000AB2C0008AB2C0008AB2C0008AB2C0008FA
:102A6000AB2C0008AB2C00089F2A0008944B1B6875
:102A700003F02003002B09D0914B1B68DB0803F007
:102A80000303904A22FA03F3BB6111E18D4BBB6152
:102A90000EE18D4BBB610BE18C4BBB6108E1884BB8
:102AA0009B6A03F003037B61854B9B6A1B0903F060
:102AB0003F033B61824BDB6A03F00103FB60804B09
:102AC0005B6BDB08C3F30C03FA6802FB03F307EE4E
:102AD000903AF8EE677AC7ED027A3B69002B00F076
:102AE000E1807B69022B00F083807B69022B00F27E
:102AF000A1807B69002B03D07B69012B56D099E024
:102B00006F4B1B6803F02003002B2DD06C4B1B6810
:102B1000DB0803F003036B4A22FA03F37B607B6854
:102B200007EE903AF8EE676A3B6907EE903AF8EEE6
:102B3000677A86EEA77A624B1B6BC3F3080307EE36
:102B4000903AF8EE676A97ED026ADFED615AC6EED9
:102B5000257A76EEA77AF7EE006A77EEA67A67EE28
:102B6000277AC7ED077A87E03B6907EE903AF8EEDF
:102B7000677ADFED586A86EEA77A514B1B6BC3F379
:102B8000080307EE903AF8EE676A97ED026ADFED08
:102B9000505AC6EE257A76EEA77AF7EE006A77EEFF
:102BA000A67A67EE277AC7ED077A65E03B6907EEFC
:102BB000903AF8EE677ADFED486A86EEA77A404BE6
:102BC0001B6BC3F3080307EE903AF8EE676A97EDC4
:102BD000026ADFED3F5AC6EE257A76EEA77AF7EE67
:102BE000006A77EEA67A67EE277AC7ED077A43E0A8
:102BF0003B6907EE903AF8EE677ADFED386A86EEC9
:102C0000A77A2F4B1B6BC3F3080307EE903AF8EE3D
:102C1000676A97ED026ADFED2E5AC6EE257A76EEE8
:102C2000A77AF7EE006A77EEA67A67EE277AC7ED05
:102C3000077A21E03B6907EE903AF8EE677ADFED1C
:102C4000266A86EEA77A1E4B1B6BC3F3080307EEBA
:102C5000903AF8EE676A97ED026ADFED1D5AC6EE0C
:102C6000257A76EEA77AF7EE006A77EEA67A67EE17
:102C7000277AC7ED077A00BF114B1B6B5B0A03F085
:102C80007F0301333B603B6807EE903AB8EE677A0A
:102C9000D7ED076AC6EE877AFCEEE77A17EE903A30
:102CA000BB6105E00023BB6102E0074BBB6100BFD5
:102CB000BB6918462437BD465DF8047B704700BFEA
:102CC000004402580090D00300093D0040787D0187
:102CD000000000460024744C0024744A20BCBE4B03
:102CE0002DE9B04FCAB000AFC7F81401002387F830
:102CF0002731002387F82631D7F81431D3E9002390
:102D000002F00064002554EA050349D0D7F81431D5
:102D10009B6EB3F5401F2FD0B3F5401F28D8B3F5F5
:102D2000001F1AD0B3F5001F22D8002B03D0B3F533
:102D3000801F07D01CE0B84BDB6AB74A43F400336E
:102D4000D3621AE0D7F8143108330221184601F093
:102D5000D1F9034687F827310FE0D7F8143128332B
:102D60000221184601F078FA034687F8273104E07B
:102D7000012387F8273100E000BF97F82731002BA7
:102D80000AD1A54B1B6D23F44011D7F814319B6E6B
:102D9000A14A0B43136503E097F8273187F82631E2
:102DA000D7F81431D3E9002302F480784FF00009FA
:102DB00058EA090347D0D7F814319B6D042B2AD861
:102DC00001A252F823F000BFDD2D0008EB2D000812
:102DD000012E00081F2E00081F2E00088E4BDB6AF4
:102DE0008D4A43F40033D3621AE0D7F81431083324
:102DF0000021184601F07EF9034687F827310FE0DD
:102E0000D7F8143128330021184601F025FA03467B
:102E100087F8273104E0012387F8273100E000BF5D
:102E200097F82731002B0AD17B4B1B6D23F007014C
:102E3000D7F814319B6D784A0B43136503E097F87C
:102E4000273187F82631D7F81431D3E9002302F46B
:102E5000007A4FF0000B5AEA0B034CD0D7F814312C
:102E6000DB6DB3F5807F30D0B3F5807F29D8C02BE0
:102E70002DD0C02B25D8802B18D0802B21D8002B0B
:102E800002D0402B07D01CE0634BDB6A624A43F45C
:102E90000033D3621CE0D7F8143108330021184600
:102EA00001F028F9034687F8273111E0D7F81431EB
:102EB00028330021184601F0CFF9034687F827315F
:102EC00006E0012387F8273102E000BF00E000BFE1
:102ED00097F82731002B0AD14F4B1B6D23F4E0717B
:102EE000D7F81431DB6D4C4A0B43136503E097F8B8
:102EF000273187F82631D7F81431D3E9002302F4BB
:102F00008063C7F808310023C7F80C31D7E94212B3
:102F10000B46134353D0D7F81431D3F8A830B3F588
:102F2000000F35D0B3F5000F2ED8B3F5C00F31D058
:102F3000B3F5C00F28D8B3F5800F1AD0B3F5800FC2
:102F400022D8002B03D0B3F5001F07D01CE0324B72
:102F5000DB6A314A43F40033D3621CE0D7F8143102
:102F600008330021184601F0C5F8034687F82731D9
:102F700011E0D7F8143128330021184601F06CF91C
:102F8000034687F8273106E0012387F8273102E05E
:102F900000BF00E000BF97F82731002B0BD11E4B7C
:102FA0009B6D23F46001D7F81431D3F8A8301A4A86
:102FB0000B43936503E097F8273187F82631D7F85C
:102FC0001431D3E9002302F40063C7F80031002371
:102FD000C7F80431D7E940120B46134356D0D7F84F
:102FE0001431D3F8AC30B3F1806F38D0B3F1806FC7
:102FF00031D8B3F1407F34D0B3F1407F2BD8B3F157
:10300000007F1DD0B3F1007F25D8002B06D0B3F18F
:10301000807F0AD01FE000BF00440258A24BDB6A49
:10302000A14A43F40033D3621CE0D7F814310833CB
:103030000021184601F05EF8034687F8273111E0B9
:10304000D7F8143128330021184601F005F903465A
:1030500087F8273106E0012387F8273102E000BF17
:1030600000E000BF97F82731002B0BD18E4B9B6DF2
:1030700023F0E061D7F81431D3F8AC308A4A0B431F
:10308000936503E097F8273187F82631D7F8143194
:10309000D3E9002302F00073C7F8F8300023C7F823
:1030A000FC30D7E93E120B4613433AD0D7F814311F
:1030B000DB6C302B1FD0302B19D8202B0CD0202BC1
:1030C00015D8002B19D0102B11D1774BDB6A764A1B
:1030D00043F40033D36211E0D7F8143108330221EE
:1030E000184601F007F8034687F8273106E0012368
:1030F00087F8273102E000BF00E000BF97F82731D2
:10310000002B0AD1684BDB6C23F03001D7F8143167
:10311000DB6C654A0B43D36403E097F8273187F8EB
:103120002631D7F81431D3E9002302F48053C7F8CD
:10313000F0300023C7F8F430D7E93C120B461343B4
:1031400051D0D7F814311B6EB3F5804F35D0B3F59D
:10315000804F2ED8B3F5405F31D0B3F5405F28D80B
:10316000B3F5005F1AD0B3F5005F22D8002B03D06F
:10317000B3F5805F07D01CE04B4BDB6A4A4A43F44F
:103180000033D3621CE0D7F814310833002118460D
:1031900000F0B0FF034687F8273111E0D7F814316B
:1031A00028330021184601F057F8034687F82731E5
:1031B00006E0012387F8273102E000BF00E000BFEE
:1031C00097F82731002B0AD1374B1B6D23F4E041D0
:1031D000D7F814311B6E344A0B43136503E097F89C
:1031E000273187F82631D7F81431D3E9002302F4C8
:1031F0000053C7F8E8300023C7F8EC30D7E93A129B
:103200000B46134356D0D7F814315B6EB3F5A02F9D
:1032100033D0B3F5A02F2CD8B3F5802F2FD0B3F532
:10322000802F26D8B3F5403F2BD0B3F5403F20D8B0
:10323000B3F5003F12D0B3F5003F1AD8002B22D0CF
:10324000B3F5803F15D1D7F8143108330121184662
:1032500000F050FF034687F8273115E0D7F8143106
:1032600028330121184600F0F7FF034687F827317D
:103270000AE0012387F8273106E000BF04E000BF21
:1032800002E000BF00E000BF97F82731002B0DD10E
:10329000054B1B6D23F4E021D7F814315B6E024A15
:1032A0000B43136506E000BF0044025897F827312E
:1032B00087F82631D7F81431D3E9002302F480438C
:1032C000C7F8E0300023C7F8E430D7E938120B46DE
:1032D000134355D0D7F81431D3F8B030B3F1A04F21
:1032E00033D0B3F1A04F2CD8B3F1804F2FD0B3F12E
:1032F000804F26D8B3F1405F2BD0B3F1405F20D888
:10330000B3F1005F12D0B3F1005F1AD8002B22D0C6
:10331000B3F1805F15D1D7F8143108330121184675
:1033200000F0E8FE034687F8273115E0D7F814319E
:1033300028330121184600F08FFF034687F8273114
:103340000AE0012387F8273106E000BF04E000BF50
:1033500002E000BF00E000BF97F82731002B0BD13F
:10336000A34B9B6D23F0E041D7F81431D3F8B03074
:103370009F4A0B43936503E097F8273187F826317E
:10338000D7F81431D3E9002302F40043C7F8D8304A
:103390000023C7F8DC30D7E936120B46134337D089
:1033A000D7F814311B6FB3F1005F0ED0B3F1005F9B
:1033B00016D8002B18D0B3F1805F11D18C4BDB6A8B
:1033C0008B4A43F40033D3620FE0D7F8143108334B
:1033D0000121184600F08EFE034687F8273104E0ED
:1033E000012387F8273100E000BF97F82731002B31
:1033F0000AD17F4B1B6D23F04051D7F814311B6F5E
:103400007B4A0B43136503E097F8273187F8263191
:10341000D7F81431D3E9002302F08073C7F8D03015
:103420000023C7F8D430D7E934120B46134339D000
:10343000D7F814319B6C032B1CD801A252F823F04F
:103440007D340008513400085F3400087D340008E2
:10345000674BDB6A664A43F40033D3620FE0D7F868
:10346000143108330221184600F044FE034687F861
:10347000273104E0012387F8273100E000BF97F8E7
:103480002731002B0AD15A4BDB6C23F00301D7F80C
:1034900014319B6C564A0B43D36403E097F82731F1
:1034A00087F82631D7F81431D3E9002302F48003DA
:1034B000C7F8C8300023C7F8CC30D7E932120B4622
:1034C000134300F09F804B4B1B684A4A43F48073C0
:1034D0001360FDF793FBC7F820010BE0FDF78EFBAF
:1034E0000246D7F82031D31A642B03D9032387F877
:1034F000273105E03F4B1B6803F48073002BEDD0B0
:1035000097F82731002B79D1394B1A6FD7F814313E
:10351000D3F8B430534003F44073002B15D0344B30
:103520001B6F23F44073C7F81C31314B1B6F304ABB
:1035300043F4803313672E4B1B6F2D4A23F48033E3
:1035400013672B4AD7F81C311367D7F81431D3F817
:10355000B430B3F5807F18D1FDF750FBC7F82001D8
:103560000DE0FDF74BFB0246D7F82031D21A41F2AD
:1035700088339A4203D9032387F8273105E01C4B8F
:103580001B6F03F00203002BEBD097F82731002BC1
:1035900029D1D7F81431D3F8B43003F44073B3F51C
:1035A000407F0ED1124B1B6923F47C51D7F81431A4
:1035B000D3F8B4301A09104B13400D4A0B43136172
:1035C00005E00B4B1B690A4A23F47C531361084B3B
:1035D000196FD7F81431D3F8B430C3F30B03044A8E
:1035E0000B4313670EE097F8273187F8263109E07F
:1035F0000044025800480258CFFFFF0097F82731D7
:1036000087F82631D7F81431D3E9002302F00103FB
:10361000C7F8C0300023C7F8C430D7E930120B46D2
:10362000134300F08980D7F81431DB6F282B6BD857
:1036300001A252F823F000BF113700080937000833
:10364000093700080937000809370008093700085A
:103650000937000809370008DD3600080937000877
:10366000093700080937000809370008093700083A
:103670000937000809370008F33600080937000841
:10368000093700080937000809370008093700081A
:103690000937000809370008113700080937000802
:1036A00009370008093700080937000809370008FA
:1036B00009370008093700081137000809370008E2
:1036C00009370008093700080937000809370008DA
:1036D000093700080937000811370008D7F81431F6
:1036E00008330121184600F005FD034687F827310D
:1036F0000FE0D7F8143128330121184600F0ACFD53
:10370000034687F8273104E0012387F8273100E0DA
:1037100000BF97F82731002B0AD1BF4B5B6D23F018
:103720003801D7F81431DB6FBB4A0B43536503E014
:1037300097F8273187F82631D7F81431D3E90023D9
:1037400002F00203C7F8B8300023C7F8BC30D7E94D
:103750002E120B46134341D0D7F814319B6F052B23
:1037600024D801A252F823F0B537000881370008A9
:1037700097370008B5370008B5370008B537000897
:10378000D7F8143108330121184600F0B3FC034682
:1037900087F827310FE0D7F8143128330121184674
:1037A00000F05AFD034687F8273104E0012387F82B
:1037B000273100E000BF97F82731002B0AD1964B44
:1037C0005B6D23F00701D7F814319B6F924A0B43CE
:1037D000536503E097F8273187F82631D7F814317D
:1037E000D3E9002302F00403C7F8B0300023C7F880
:1037F000B430D7E92C120B46134344D0D7F8143118
:10380000D3F89430052B25D801A252F823F000BF3D
:103810005D380008293800083F3800085D38000886
:103820005D3800085D380008D7F8143108330121ED
:10383000184600F05FFC034687F827310FE0D7F801
:10384000143128330121184600F006FD034687F89D
:10385000273104E0012387F8273100E000BF97F803
:103860002731002B0BD16C4B9B6D23F00701D7F850
:103870001431D3F89430684A0B43936503E097F80A
:10388000273187F82631D7F81431D3E9002302F025
:103890002003C7F8A8300023C7F8AC30D7E92A12B4
:1038A0000B46134355D0D7F81431D3F89030B3F109
:1038B000A04F33D0B3F1A04F2CD8B3F1804F2FD00D
:1038C000B3F1804F26D8B3F1405F2BD0B3F1405F06
:1038D00020D8B3F1005F12D0B3F1005F1AD8002BEB
:1038E00022D0B3F1805F15D1D7F81431083300210D
:1038F000184600F0FFFB034687F8273115E0D7F89C
:10390000143128330221184600F0A6FC034687F83C
:1039100027310AE0012387F8273106E000BF04E0E1
:1039200000BF02E000BF00E000BF97F82731002B86
:103930000BD1394B5B6D23F0E041D7F81431D3F84C
:103940009030354A0B43536503E097F8273187F8E9
:103950002631D7F81431D3E9002302F04003C7F829
:10396000A0300023C7F8A430D7E928120B46134330
:1039700058D0D7F81431D3F89C30B3F5A05F33D0CA
:10398000B3F5A05F2CD8B3F5805F2FD0B3F5805F7F
:1039900026D8B3F5406F2BD0B3F5406F20D8B3F5E0
:1039A000006F12D0B3F5006F1AD8002B22D0B3F5F8
:1039B000806F15D1D7F8143108330021184600F074
:1039C00099FB034687F8273115E0D7F814312833DF
:1039D0000221184600F040FC034687F827310AE030
:1039E000012387F8273106E000BF04E000BF02E0B2
:1039F00000BF00E000BF97F82731002B0ED1064B27
:103A00009B6D23F4E051D7F81431D3F89C30024A6F
:103A10000B43936506E000BF0044025897F8273136
:103A200087F82631D7F81431D3E9002302F0800358
:103A3000C7F898300023C7F89C30D7E926120B4608
:103A4000134355D0D7F81431D3F8A030B3F5204F35
:103A500033D0B3F5204F2CD8B3F5004F2FD0B3F5AA
:103A6000004F26D8B3F5C04F2BD0B3F5C04F20D8A8
:103A7000B3F5804F12D0B3F5804F1AD8002B22D067
:103A8000B3F5005F15D1D7F814310833002118467B
:103A900000F030FB034687F8273115E0D7F81431E2
:103AA00028330221184600F0D7FB034687F8273158
:103AB0000AE0012387F8273106E000BF04E000BFD9
:103AC00002E000BF00E000BF97F82731002B0BD1C8
:103AD000A14B9B6D23F46041D7F81431D3F8A0308B
:103AE0009D4A0B43936503E097F8273187F8263109
:103AF000D7F81431D3E9002302F00803C7F8903057
:103B00000023C7F89430D7E924120B4613431ED084
:103B1000D7F81431D3F88430B3F5805F0CD1D7F8DF
:103B2000143128330221184600F096FB0346002B7F
:103B300002D0012387F82631874B5B6D23F4405177
:103B4000D7F81431D3F88430834A0B435365D7F840
:103B50001431D3E9002302F01003C7F888300023A2
:103B6000C7F88C30D7E922120B4613431ED0D7F882
:103B70001431D3F89830B3F5807F0CD1D7F81431D5
:103B800028330221184600F067FB0346002B02D0C1
:103B9000012387F82631704B9B6D23F44071D7F8D1
:103BA0001431D3F898306C4A0B439365D7F814312D
:103BB000D3E9002302F40023C7F880300023C7F8BC
:103BC0008430D7E920120B4613433ED0D7F8143186
:103BD000D3F8A430B3F5003F22D0B3F5003F1BD893
:103BE000002B03D0B3F5803F0BD015E0D7F814318C
:103BF00008330021184600F07DFA034687F8273184
:103C00000FE0D7F8143128330221184600F024FBC6
:103C1000034687F8273104E0012387F8273100E0C5
:103C200000BF97F82731002B0BD14B4B9B6D23F432
:103C30004031D7F81431D3F8A430474A0B43936589
:103C400003E097F8273187F82631D7F81431D3E904
:103C5000002302F48023BB670023FB67D7E91E1211
:103C60000B4613433BD0D7F81431D3F88830B3F563
:103C7000401F1FD0B3F5401F18D8B3F5801F03D0E5
:103C8000B3F5001F07D011E0334BDB6A324A43F42F
:103C90000033D3620FE0D7F81431283301211846DE
:103CA00000F0DAFA034687F8273104E0012387F8A9
:103CB000273100E000BF97F82731002B0BD1264BAE
:103CC0005B6D23F44011D7F81431D3F88830224AC1
:103CD0000B43536503E097F8273187F82631D7F86F
:103CE0001431D3E9002302F480333B6700237B6760
:103CF000D7E91C120B46134334D0D7F814311B6D8F
:103D0000002B03D0B3F5803F07D011E0124BDB6AE4
:103D1000114A43F40033D3620EE0D7F8143108336C
:103D20000221184600F0E6F9034687F8273103E040
:103D3000012387F8273100BF97F82731002B0DD1D9
:103D4000054BDB6C23F48031D7F814311B6D024A2C
:103D50000B43D36406E000BF0044025897F82731B4
:103D600087F82631D7F81431D3E9002302F0005345
:103D7000BB660023FB66D7E91A120B4613430CD02F
:103D8000D7F8143128330221184600F065FA0346AB
:103D9000002B02D0012387F82631D7F81431D3E95C
:103DA000002302F400333B6600237B66D7E9181238
:103DB0000B46134338D0D7F81431D3F88030B3F51D
:103DC000407F18D0B3F5407F11D8B3F5007F14D0F1
:103DD000B3F5007F0BD8002B11D0B3F5807F06D14F
:103DE000C34BDB6AC24A43F40033D36208E00123C9
:103DF00087F8273104E000BF02E000BF00E000BF09
:103E000097F82731002B0BD1B94B5B6D23F4407130
:103E1000D7F81431D3F88030B54A0B43536503E02B
:103E200097F8273187F82631D7F81431D3E90023E2
:103E300002F48013BB650023FB65D7E916120B461D
:103E4000134309D0AA4B1B6D23F00041D7F814315E
:103E50005B6FA74A0B431365D7F81431D3E90023EE
:103E600002F080533B6500237B65D7E914120B46B3
:103E700013430AD09E4B1B6923F48041D7F81431B9
:103E8000D3F8B8309A4A0B431361D7F81431D3E909
:103E9000002302F40013BB640023FB64D7E9121271
:103EA0000B46134309D0924B1B6D23F08071D7F85A
:103EB0001431DB6E8E4A0B431365D7F81431D3E906
:103EC000002302F080433B6400237B64D7E9101297
:103ED0000B4613430ED0864B1B69854A23F40043DF
:103EE0001361834B1969D7F81431D3F8BC30804A79
:103EF0000B431361D7F81431D3E9002302F00043D8
:103F0000BB630023FB63D7E90E120B46134309D0B2
:103F1000774BDB6C23F04051D7F814315B6D744A5A
:103F20000B43D364D7F81431D3E9002302F4000320
:103F30003B6300237B63D7E90C120B4613430AD083
:103F40006B4B5B6D23F44001D7F81431D3F88C3000
:103F5000674A0B435365D7F81431D3E90023002196
:103F6000B96203F00103FB62D7E90A120B4613435F
:103F700011D0D7F8143108330021184600F0BAF8F0
:103F8000034687F8273197F82731002B03D097F89D
:103F9000273187F82631D7F81431D3E900230021DF
:103FA000396203F002037B62D7E908120B46134320
:103FB00011D0D7F8143108330121184600F09AF8CF
:103FC000034687F8273197F82731002B03D097F85D
:103FD000273187F82631D7F81431D3E9002300219F
:103FE000B96103F00403FB61D7E906120B461343E2
:103FF00011D0D7F8143108330221184600F07AF8AE
:10400000034687F8273197F82731002B03D097F81C
:10401000273187F82631D7F81431D3E9002300215E
:10402000396103F008037B61D7E904120B4613439F
:1040300011D0D7F8143128330021184600F00CF9BC
:10404000034687F8273197F82731002B03D097F8DC
:10405000273187F82631D7F81431D3E9002300211E
:10406000B96003F01003FB60D7E902120B4613435B
:1040700011D0D7F8143128330121184600F0ECF89C
:10408000034687F8273197F82731002B03D097F89C
:10409000273187F82631D7F81431D3E900230021DE
:1040A000396003F020037B60D7E900120B4613430D
:1040B00011D0D7F8143128330221184600F0CCF87B
:1040C000034687F8273197F82731002B03D097F85C
:1040D000273187F8263197F82631002B01D10023AC
:1040E00000E00123184607F59477BD46BDE8B08F80
:1040F0000044025880B584B000AF78603960002376
:10410000FB73534B9B6A03F00303032B01D1012381
:1041100099E04F4B1B684E4A23F080631360FCF715
:104120006DFDB86008E0FCF769FD0246BB68D31A74
:10413000022B01D9032386E0454B1B6803F0006383
:10414000002BF0D1424B9B6A23F47C327B681B68C6
:104150001B033F4913438B627B685B68013BC3F3DE
:1041600008027B689B68013B5B029BB21A437B6839
:10417000DB68013B1B0403F4FE031A437B681B69E5
:10418000013B1B0603F0FE43314913438B63304B65
:10419000DB6A23F0C0027B685B692D491343CB6265
:1041A0002B4BDB6A23F020027B689B692849134371
:1041B000CB62274BDB6A264A23F01003D362244BE1
:1041C000DA6B244B13407A68D269D200204913433A
:1041D000CB631F4BDB6A1E4A43F01003D3623B687C
:1041E000002B06D11A4BDB6A194A43F40023D36231
:1041F0000FE03B68012B06D1154BDB6A144A43F4F0
:104200008013D36205E0124BDB6A114A43F40013BA
:10421000D3620F4B1B680E4A43F080631360FCF7B8
:10422000EDFCB86008E0FCF7E9FC0246BB68D31A75
:10423000022B01D9032306E0054B1B6803F0006342
:10424000002BF0D0FB7B18461037BD4680BD00BF69
:10425000004402580700FFFF80B584B000AF7860CB
:1042600039600023FB73534B9B6A03F00303032B5A
:1042700001D1012399E04F4B1B684E4A23F0805334
:104280001360FCF7BBFCB86008E0FCF7B7FC024623
:10429000BB68D31A022B01D9032386E0454B1B6868
:1042A00003F00053002BF0D1424B9B6A23F07C7249
:1042B0007B681B681B053F4913438B627B685B6807
:1042C000013BC3F308027B689B68013B5B029BB226
:1042D0001A437B68DB68013B1B0403F4FE031A43AB
:1042E0007B681B69013B1B0603F0FE433149134306
:1042F0000B64304BDB6A23F440627B685B692D49B9
:104300001343CB622B4BDB6A23F400727B689B69FF
:1043100028491343CB62274BDB6A264A23F4807378
:10432000D362244B5A6C244B13407A68D269D20072
:10433000204913434B641F4BDB6A1E4A43F48073CE
:10434000D3623B68002B06D11A4BDB6A194A43F44F
:104350008003D3620FE03B68012B06D1154BDB6A6B
:10436000144A43F40003D36205E0124BDB6A114A9E
:1043700043F08073D3620F4B1B680E4A43F08053A7
:104380001360FCF73BFCB86008E0FCF737FC024622
:10439000BB68D31A022B01D9032306E0054B1B6827
:1043A00003F00053002BF0D0FB7B18461037BD46BE
:1043B00080BD00BF004402580700FFFF80B586B0F3
:1043C00000AF78600023FB752C4A7B6813602B4B91
:1043D0001B68184600F0D0F80346FB75FB7D002BE8
:1043E00001D1012345E0FB7D184600F04BF8244B3A
:1043F0005B68FB60FB6893FAA3F3BB60BB683B613F
:104400003B69002B01D1202303E03B69B3FA83F31E
:10441000DBB25A1E194B1B681A61184B1B681846F1
:10442000FCF7C4FF0346002B01D0012321E0134B0E
:104430001B68184600F0E0F80346002B01D0042367
:1044400017E0FB7D182B09D90C4B1B68184600F0B0
:1044500015F90346002B01D004230AE0074B1B6823
:10446000184600F047F90346002B01D0042300E072
:10447000002318461837BD4680BD00BFA4000024A5
:10448000A800002480B483B000AF0346FB71194B31
:104490001B68002B01D1012326E0FB79002B01D101
:1044A000012321E0144AFB791370134B4FF0007283
:1044B0005A60114B4FF480529A600F4B4FF40052E8
:1044C000DA600D4B4FF480721A610B4B4FF40032DF
:1044D0005A61094B4FF448729A61074B074ADA61F7
:1044E000054B0A221A62002318460C37BD465DF8B8
:1044F000047B7047A4000024A80000240053070098
:1045000080B590B000AF1A4B1B68002B01D101237E
:104510002AE04FF480733B624FF440637B62EC23EC
:10452000BB604FF440537B610023BB624FF040738C
:10453000FB62104B1B6AFB6100237B630023BB63A0
:104540000023FB6300237B6000233B60084B1B6858
:104550003A4607F108011846FDF7A0F90346002B7B
:1045600001D0012300E0002318464037BD4680BD3E
:10457000A4000024A800002480B596B000AF7860A5
:104580004FF48073BB63AF233B620023FB630023C4
:104590003B644FF080737B6400237B630023FB64E8
:1045A00000233B6500237B651423BB6407F12003D4
:1045B00041F2883219467868FCF76CFF0346002BFD
:1045C00001D0002314E007F10C0314220021184647
:1045D00000F08DF907F10C0341F288321946786832
:1045E000FDF748F80346002B01D0002300E0BB7B19
:1045F00018465837BD4680BD80B590B000AF786092
:104600004FF480733B626623BB6000237B62002310
:10461000BB620023FB620023FB6100237B6300235A
:10462000BB630023FB6307F1080341F2883219469C
:104630007868FCF72FFF0346002B01D0012319E017
:104640009923BB6007F1080341F288321946786864
:10465000FCF720FF0346002B01D001230AE041F2C2
:104660008831786800F00BF90346002B01D0012354
:1046700000E0002318464037BD4680BD80B590B0AD
:1046800000AF78604FF480733B62B723BB600023B8
:104690007B620023BB620023FB620023FB610023DB
:1046A0007B630023BB630023FB63786800F09EF804
:1046B0000346002B01D0012317E007F1080341F264
:1046C000883219467868FCF7E5FE0346002B01D0D6
:1046D00001230AE041F28831786800F0D0F80346FF
:1046E000002B01D0012300E0002318464037BD46CF
:1046F00080BD000080B594B000AF78604FF4807347
:104700007B628523FB600023BB620023FB624FF0CA
:1047100080733B6300233B6201237B630023BB6305
:104720000023FB6300233B6407F10C0341F2883252
:1047300019467868FCF7AEFE0346002B01D0012332
:104740004DE007F10B0341F2883219467868FCF717
:1047500091FF0346002B01D0012340E0786800F070
:1047600045F80346002B01D0012338E08123FB608C
:10477000FB7A03F00F03DAB21B4B1B6AF021B9641A
:10478000B96C91FAA1F17964796CF964F96C00293A
:1047900001D1202103E0F96CB1FA81F1C9B28B405B
:1047A000DBB21343DBB2FB7207F10C0341F2883238
:1047B00019467868FCF76EFE0346002B01D00123F2
:1047C0000DE007F10B0341F2883219467868FCF7D7
:1047D000BFFE0346002B01D0012300E00023184652
:1047E0005037BD4680BD00BFA800002480B596B0FC
:1047F00000AF78604FF48073BB6306233B620023F5
:10480000FB6300233B6400237B6400237B63002362
:10481000FB6400233B6500237B6507F1200341F225
:10482000883219467868FCF735FE0346002B01D024
:10483000012320E00223BB600223FB600023BB6155
:1048400001237B6110233B614FF48003FB6105234F
:104850003B624FF080737B6407F1080207F120018F
:1048600041F288337868FCF7A2FF0346002B01D0A1
:10487000012300E0002318465837BD4680BD80B5AF
:1048800096B000AF786039604FF48073BB63052346
:104890003B620023FB6300233B644FF080737B6427
:1048A00000237B630023FB6400233B6500237B65BF
:1048B0000023BB600123FB600023BB6101237B61FC
:1048C00010233B614FF48003FB6107F1080207F1FD
:1048D00020013B687868FCF76AFF0346002B01D093
:1048E000012300E0002318465837BD4680BD02442E
:1048F0000346934200D1704703F8011BF9E700001B
:1049000070B50D4D0D4C641BA4100026A64209D1B4
:104910000B4D0C4C00F018F8641BA4100026A642A6
:1049200005D170BD55F8043B98470136EEE755F8C0
:10493000043B98470136F2E77049000870490008C7
:104940007049000874490008F8B500BFF8BC08BCFD
:104950009E467047F8B500BFF8BC08BC9E4670473D
:104960000000000001020304010203040607080915
:10497000BD020008990200080090D0030090D00307
:0849800010000000010000001E
:0200000490006A
:1000000000000824F92900907D1E0090851E0090B4
:100010008D1E0090951E00909D1E00900000000017
:10002000000000000000000000000000210302901A
:10003000A51E00900000000071050290CDF2019015
:10004000492A0090492A0090492A0090492A0090A4
:10005000492A0090492A0090492A0090492A009094
:10006000492A0090492A00909D930190492A0090C6
:10007000492A0090492A0090492A0090492A009074
:10008000492A0090492A0090492A0090492A009064
:10009000492A0090492A0090492A0090492A009054
:1000A000492A0090492A0090492A0090492A009044
:1000B000492A0090492A0090492A0090492A009034
:1000C000492A0090492A0090492A0090492A009024
:1000D000492A0090492A00909DF00190492A0090F9
:1000E000492A0090492A009000000000492A009007
:1000F000492A0090492A0090492A0090492A0090F4
:10010000492A0090492A0090492A0090492A0090E3
:10011000492A0090492A0090B51E0090492A009073
:10012000492A0090492A0090492A0090492A0090C3
:10013000492A0090C91E0090492A0090492A00903F
:1001400000000000000000000000000000000000AF
:10015000492A0090492A0090492A0090492A009093
:10016000492A0090492A0090492A0090492A009083
:10017000492A0090492A0090492A0090492A009073
:10018000492A0090492A0090A9F00190492A00903C
:10019000492A0090492A0090492A0090492A009053
:1001A000DD1E0090492A009045330090492A0090B6
:1001B000492A0090492A0090492A0090492A009033
:1001C000492A0090492A0090492A0090492A009023
:1001D000492A0090F11E0090492A0090492A009077
:1001E000492A0090492A0090492A0090492A009003
:1001F000492A0090492A0090492A0090492A0090F3
:10020000492A0090492A0090492A0090492A0090E2
:10021000492A0090492A0090492A0090492A0090D2
:10022000492A0090492A0090492A009000000000C5
:10023000492A0090492A009000000000492A0090B5
:10024000492A0090492A0090492A0090492A0090A2
:10025000492A0090492A0090492A0090492A009092
:10026000492A0090492A0090492A0090492A009082
:10027000492A0090492A0090492A00900000000075
:10028000492A0090492A0090492A00900000000065
:0802900000000000492A009063
:1002A00010B5054C237833B9044B13B10448AFF3B0
:1002B00000800123237010BD400B002400000000CB
:1002C0009886089008B5034B1BB103490348AFF368
:1002D000008008BD00000000440B002498860890B0
:1002E00001F0FF01102A2BDB10F0070F08D010F8E7
:1002F000013B013A8B422DD010F0070F42B3F6D1EB
:10030000F0B441EA012141EA014122F007047FF003
:1003100000070023F0E80256083C85EA010586EA5A
:10032000010685FA47F5A3FA87F586FA47F6A5FA96
:1003300087F68EB9EED1F0BC01F0FF0102F00702A2
:1003400032B110F8013B013A83EA010313B1F8D14D
:100350000020704701387047002D06BF354603382E
:10036000073815F0010F07D1013015F4807F02BF67
:10037000013015F4C03F0130F0BC0138704700BFB8
:10038000034613F8012B002AFBD1181A01387047D5
:1003900053B94AB9002908BF00281CBF4FF0FF31EC
:1003A0004FF0FF3000F06AB9ADF1080C6DE904CEF2
:1003B00000F006F8DDF804E0DDE9022304B0704740
:1003C0002DE9F047089D0C46002B4ED194468C45F4
:1003D0008646B2FA82F262D94AB1C2F12003914054
:1003E00020FA03F30CFA02FC194300FA02FE4FEA6A
:1003F0001C471FFA8CF6B1FBF7F44FEA1E4307FBCC
:10040000141143EA014304FB06F199420AD91CEB9B
:10041000030304F1FF3080F01281994240F20F8112
:10042000023C6344591A1FFA8EF3B1FBF7F007FB45
:10043000101143EA014300FB06F69E420AD91CEB69
:10044000030300F1FF3180F0FC809E4240F2F9800E
:10045000634402389B1B40EA044000211DB1D34095
:100460000022C5E90032BDE8F0878B4205D90DB105
:10047000C5E9000100210846F5E7B3FA83F1002938
:1004800046D1A34202D39042C0F0F080861A64EBBA
:1004900003030120002DE6D0C5E90063E3E7002A4D
:1004A00040F09080A1EB0C044FEA1C481FFA8CF737
:1004B0000121B4FBF8F64FEA1E4308FB164443EA59
:1004C000044307FB06F0984208D91CEB030306F12E
:1004D000FF3402D2984200F2CD8026461C1A1FFA41
:1004E0008EF3B4FBF8F008FB104443EA044300FB2E
:1004F00007F79F4208D91CEB030300F1FF3402D237
:100500009F4200F2B0802046DB1B40EA0640A5E790
:10051000C1F120068B4022FA06F71F4320FA06FCA1
:1005200004FA01F343EA0C03F44000FA01F8380C32
:100530004FEA1349B4FBF0FE1FFA87FC00FB1E4490
:1005400049EA04440EFB0CF9A14502FA01F20AD96A
:100550003C190EF1FF3A80F08480A14540F2818081
:10056000AEF1020E3C44A4EB09041FFA83F9B4FB7C
:10057000F0F300FB134449EA044403FB0CFCA445DC
:1005800007D93C1903F1FF3067D2A44565D9023B76
:100590003C4443EA0E40A0FB0293A4EB0C049C42B3
:1005A000CE469C4651D34ED055B1B8EB0E0364EB0A
:1005B0000C0404FA06F6CB401E43CC40C5E90064A7
:1005C000002150E7C2F1200320FA03F10CFA02FCEB
:1005D00024FA03F394400C434FEA1C4800FA02FE4D
:1005E0001FFA8CF7B3FBF8F008FB1031230C43EA39
:1005F000014300FB07F1994208D91CEB030300F10A
:10060000FF362CD299422AD9023863445B1AA4B22D
:10061000B3FBF8F108FB113344EA034401FB07F391
:10062000A34208D91CEB040401F1FF3613D2A34204
:1006300011D902396444E41A41EA004139E7044619
:10064000F0E6084606E7C845AED2B9EB020E63EB0A
:10065000070C0138A8E73146EDE7034699E7304635
:10066000D4E7D6467FE7634402384DE70646234683
:1006700008460FE7023E634430E700BF704700BF03
:1006800080B588B000AF3B1D00221A605A609A60A6
:10069000DA601A615A619A61344B354A1A60334BF9
:1006A00000225A60314B0022DA60304B04221A617A
:1006B0002E4B00221A752D4B00225A752B4B01220E
:1006C0009A612A4B00221A77284B00225A62274B44
:1006D00000229A62254B0022DA62244B00221A6320
:1006E000224B00225A63214B002283F838201F4BF3
:1006F0000122DA631D4809F01BFB0346002B01D0E1
:1007000001F07CF9194B00229A60184809F010FB9F
:100710000346002B01D001F071F9164B7B600623D4
:10072000BB600723FB6040F2FF733B6104237B61E6
:100730000023BB6100237B773B1D19460B4809F062
:1007400065FE0346002B01D001F058F940F2FF721C
:10075000002106480AF0DEFB0346002B01D001F021
:100760004DF900BF2037BD4680BD00BFBC6B0324E0
:1007700000600258000084CB80B5B4B000AF786050
:100780007B681B68184A934229D14FF400224FF02E
:100790000003C7E902234FF40033C7F8AC30042349
:1007A000BB6107F1080318460FF024FD0F4BD3F887
:1007B000E0300E4A43F08073C2F8E0300B4BD3F8C0
:1007C000E03003F08073C7F8CC30D7F8CC30074B5B
:1007D0009B6D23F44033054A43F40033936500BF17
:1007E000D037BD4680BD00BF0060025800440258AB
:1007F00080B500AF0D4B0E4A1A600C4B00221A71E7
:100800000A4B00225A71094B00225A61074B002201
:100810009A61064B01221A6204480AF069FD0346F8
:10082000002B01D001F0EAF800BF80BD206C03244A
:10083000004C025880B485B000AF78607B681B68BC
:100840000B4A93420ED10B4BD3F8E030094A43F4E4
:100850000023C2F8E030074BD3F8E03003F4002364
:10086000FB60FB6800BF1437BD465DF8047B704732
:10087000004C02580044025880B500AF194B1A4A88
:100880001A60184B00225A60164B00229A60154BD2
:100890000022DA60134B00225A64124B00229A6441
:1008A000104B0022DA640F4B00221A650D4B002218
:1008B0005A650C4B00229A650A4B0022DA650948FA
:1008C0000BF06CFB0346002B01D001F097F80121DF
:1008D00004480BF0C7FB0346002B01D001F08EF853
:1008E00000BF80BD446C03240010005280B485B06A
:1008F00000AF78607B681B680B4A93420ED10B4BAC
:10090000D3F8D430094A43F01003C2F8D430074B6F
:10091000D3F8D43003F01003FB60FB6800BF14373A
:10092000BD465DF8047B7047001000520044025839
:1009300080B588B000AF3B1D00221A605A609A60F3
:10094000DA601A615A619A611F4B204A1A601E4B85
:1009500001225A601C4B00229A601B4B0422DA6071
:10096000194B20221A61184B40225A61164B4FF442
:10097000C0729A61144B0022DA61134B4FF400628B
:100980001A62114B4FF480525A620F4B00229A6246
:1009900002237B600723BB600423FB6007233B61CA
:1009A00003237B610223BB610223FB613B1D1946CC
:1009B000054812F0D5F90346002B01D001F01EF8CE
:1009C00000BF2037BD4680BDAC6C032440410052BF
:1009D00080B5B8B000AF07F1CC0300221A605A60AE
:1009E0009A60DA601A615C4B1B68002B40F0B080A3
:1009F000594B01221A6007F10803C0220021184652
:100A000083F00AFB4FF080724FF00003C7E9022326
:100A100000233B6507F1080318460FF0EBFB034684
:100A2000002B01D000F0EAFF4C4BD3F8D4304B4AF6
:100A300043F48053C2F8D430484BD3F8D43003F495
:100A400080537B607B6840F2FF63C7F8CC300223A1
:100A5000C7F8D0300023C7F8D4300323C7F8D83004
:100A60000C23C7F8DC3007F1CC0319463C480BF0E7
:100A7000C7FC4FF68373C7F8CC300223C7F8D030D9
:100A80000023C7F8D4300323C7F8D8300C23C7F8A5
:100A9000DC3007F1CC03194632480BF0B1FC4FF6BD
:100AA000E073C7F8CC300223C7F8D0300023C7F872
:100AB000D4300323C7F8D8300C23C7F8DC3007F153
:100AC000CC03194628480BF09BFC48F23313C7F8B7
:100AD000CC300223C7F8D0300023C7F8D43003232A
:100AE000C7F8D8300C23C7F8DC3007F1CC0319461F
:100AF0001E480BF085FC4CF20373C7F8CC30022380
:100B0000C7F8D0300023C7F8D4300323C7F8D83053
:100B10000C23C7F8DC3007F1CC03194614480BF05E
:100B20006FFC4FF63F03C7F8CC300223C7F8D03034
:100B30000023C7F8D4300323C7F8D8300C23C7F8F4
:100B4000DC3007F1CC0319460A480BF059FC00E0F1
:100B500000BFE037BD4680BD5C0B00240044025856
:100B60000020025800100258001C025800180258B9
:100B7000000C02580014025880B582B000AF7860B3
:100B8000FFF726FF00BF0837BD4680BD80B400AF29
:100B900000BFBD465DF8047B7047000080B500AF24
:100BA000104A002110481EF00AFC03460F4A136049
:100BB0000F4A00210F481EF002FC03460E4A136044
:100BC0000E4A00210E481EF0FAFB03460D4A136040
:100BD0000D4A00210D481EF0F2FB03460C4A13603B
:100BE00000BF80BD242C0990150C0090E86C0324F4
:100BF000482C0990692A0090E46C03246C2C09901D
:100C0000D5EB0190EC6C0324902C09904DE30190FE
:100C1000E06C032480B582B000AF786004F026F960
:100C20001CF0C0FE01201EF05DFCFBE780B590B01B
:100C300000AF07F12C0300221A605A609A60DA6054
:100C40001A61C14BD3F8E030BF4A43F48073C2F855
:100C5000E030BD4BD3F8E03003F48073BB62BB6A75
:100C6000B94BD3F8E030B84A43F00203C2F8E030A1
:100C7000B54BD3F8E03003F002037B627B6AB24BE2
:100C8000D3F8E030B04A43F48063C2F8E030AE4BB2
:100C9000D3F8E03003F480633B623B6AAA4BD3F89D
:100CA000E030A94A43F04003C2F8E030A64BD3F845
:100CB000E03003F04003FB61FB69A34BD3F8E03065
:100CC000A14A43F00803C2F8E0309F4BD3F8E0306C
:100CD00003F00803BB61BB699B4BD3F8E0309A4A31
:100CE00043F00403C2F8E030974BD3F8E03003F050
:100CF00004037B617B69944BD3F8E030924A43F064
:100D00000103C2F8E030904BD3F8E03003F0010368
:100D10003B613B698C4BD3F8E0308B4A43F01003C6
:100D2000C2F8E030884BD3F8E03003F01003FB60EA
:100D3000FB68854BD3F8E030834A43F40073C2F874
:100D4000E030814BD3F8E03003F40073BB60BB6844
:100D50007D4BD3F8E0307C4A43F08003C2F8E030AA
:100D6000794BD3F8E03003F080037B607B68764BEF
:100D7000D3F8E030744A43F02003C2F8E030724BFD
:100D8000D3F8E03003F020033B603B68002245F2DB
:100D900022016E480BF0EEFD00224FF420516C480A
:100DA0000BF0E8FD012218216A480BF0E3FD012257
:100DB0004FF4807168480BF0DDFD00224821674840
:100DC0000BF0D8FD01220C2165480BF0D3FD002269
:100DD0004FF4006163480BF0CDFD01220821624809
:100DE0000BF0C8FD002210215F480BF0C3FD45F257
:100DF0002203FB6201233B6300237B630023BB636D
:100E000007F12C03194651480BF0FAFA4FF48063AE
:100E1000FB624FF488133B6300237B6307F12C03D1
:100E200019464E480BF0ECFA1023FB624FF4041302
:100E30003B6300237B6307F12C03194649480BF001
:100E4000DFFA4FF48163FB6200233B6300237B6383
:100E500007F12C0319463E480BF0D2FA4FF4205309
:100E6000FB6201233B6300237B630023BB6307F129
:100E70002C03194636480BF0C3FA2423FB620023E7
:100E80003B6300237B6307F12C03194631480BF0C9
:100E9000B7FA1823FB6201233B6301237B63002322
:100EA000BB6307F12C0319462A480BF0A9FA4FF44B
:100EB0008073FB6201233B6300237B630023BB63DE
:100EC00007F12C03194624480BF09AFA4FF480736B
:100ED000FB6202233B6300237B630023BB6300238D
:100EE000FB6307F12C0319461F480BF089FA4FF4F6
:100EF0000063FB6200233B6300237B6307F12C0349
:100F0000194615480BF07CFA8423FB6200233B63EF
:100F100000237B6307F12C03194610480BF070FA8D
:100F20004823FB6201233B6300237B630023BB63F5
:100F300007F12C03194609480BF062FA0C23FB62F7
:100F400001233B63002311E00044025800040258CF
:100F500000080258001002580020025800180258D9
:100F6000001C0258000C0258000002587B6300234A
:100F7000BB6307F12C03194611480BF041FA4FF4FB
:100F80000063FB6201233B6300237B630023BB639D
:100F900007F12C0319460B480BF032FA1823FB62B9
:100FA00001233B6300237B630023BB6307F12C0316
:100FB000194605480BF024FA00BF4037BD4680BDF6
:100FC000001C0258000C02580000025880B500AF07
:100FD0001B4B1C4A1A601A4B1B4A5A60184B0022C2
:100FE0009A60174B0122DA60154B00221A61144BEC
:100FF00000225A61124B00229A61114B0022DA61E1
:101000000F4B00221A620E480BF0E8FC0346002B3F
:1010100001D000F0F3FC002109480CF041F903462F
:10102000002B01D000F0EAFC002105480CF083F908
:101030000346002B01D000F0E1FC00BF80BD00BFE3
:10104000446D032400540040FFECC01080B500AF95
:101050001B4B1C4A1A601A4B1B4A5A60184B002241
:101060009A60174B0122DA60154B00221A61144B6B
:1010700000225A61124B00229A61114B0022DA6160
:101080000F4B00221A620E480BF0A8FC0346002BFF
:1010900001D000F0B3FC002109480CF001F903462F
:1010A000002B01D000F0AAFC002105480CF043F908
:1010B0000346002B01D000F0A1FC00BF80BD00BFA3
:1010C000F06C032400580040FFECC01080B5C0B0A5
:1010D00000AF786007F1EC0300221A605A609A6052
:1010E000DA601A6107F12803C0220021184682F055
:1010F00093FF7B681B68864A934246D14FF00802F3
:101100004FF00003C7E90A230023C7F8AC3007F10A
:10111000280318460FF06EF80346002B01D000F0AC
:101120006DFC7C4BD3F8E0307A4A43F00203C2F8FE
:10113000E030784BD3F8E03003F002037B627B6A47
:10114000C023C7F8EC301223C7F8F0300023C7F8EB
