:020000040800F2
:10000000000008249D0A0008550900085B09000843
:1000100061090008670900086D0900080000000078
:10002000000000000000000000000000ED0A0008D1
:100030007309000800000000ED0A000881090008AB
:10004000ED0A0008ED0A0008ED0A0008ED0A0008B4
:10005000ED0A0008ED0A0008ED0A0008ED0A0008A4
:10006000ED0A0008ED0A0008ED0A0008ED0A000894
:10007000ED0A0008ED0A0008ED0A0008ED0A000884
:10008000ED0A0008ED0A0008ED0A0008ED0A000874
:10009000ED0A0008ED0A0008ED0A0008ED0A000864
:1000A000ED0A0008ED0A0008ED0A0008ED0A000854
:1000B000ED0A0008ED0A0008ED0A0008ED0A000844
:1000C000ED0A0008ED0A0008ED0A0008ED0A000834
:1000D000ED0A0008ED0A0008ED0A0008ED0A000824
:1000E000ED0A0008ED0A000800000000ED0A000813
:1000F000ED0A0008ED0A0008ED0A0008ED0A000804
:10010000ED0A0008ED0A0008ED0A0008ED0A0008F3
:10011000ED0A0008ED0A0008ED0A0008ED0A0008E3
:10012000ED0A0008ED0A0008ED0A0008ED0A0008D3
:10013000ED0A0008ED0A0008ED0A0008ED0A0008C3
:1001400000000000000000000000000000000000AF